{
  "contractName": "FundAllocation",
  "abi": [
    {
      "inputs": [],
      "stateMutability": "nonpayable",
      "type": "constructor"
    },
    {
      "anonymous": false,
      "inputs": [
        {
          "indexed": true,
          "internalType": "address",
          "name": "recipient",
          "type": "address"
        },
        {
          "indexed": false,
          "internalType": "uint256",
          "name": "amount",
          "type": "uint256"
        }
      ],
      "name": "FundsAllocated",
      "type": "event"
    },
    {
      "anonymous": false,
      "inputs": [
        {
          "indexed": true,
          "internalType": "address",
          "name": "recipient",
          "type": "address"
        },
        {
          "indexed": false,
          "internalType": "uint256",
          "name": "amount",
          "type": "uint256"
        }
      ],
      "name": "FundsWithdrawn",
      "type": "event"
    },
    {
      "inputs": [
        {
          "internalType": "address",
          "name": "",
          "type": "address"
        }
      ],
      "name": "balances",
      "outputs": [
        {
          "internalType": "uint256",
          "name": "",
          "type": "uint256"
        }
      ],
      "stateMutability": "view",
      "type": "function"
    },
    {
      "inputs": [],
      "name": "owner",
      "outputs": [
        {
          "internalType": "address",
          "name": "",
          "type": "address"
        }
      ],
      "stateMutability": "view",
      "type": "function"
    },
    {
      "stateMutability": "payable",
      "type": "receive"
    },
    {
      "inputs": [
        {
          "internalType": "address",
          "name": "recipient",
          "type": "address"
        },
        {
          "internalType": "uint256",
          "name": "amount",
          "type": "uint256"
        }
      ],
      "name": "allocateFunds",
      "outputs": [],
      "stateMutability": "nonpayable",
      "type": "function"
    },
    {
      "inputs": [
        {
          "internalType": "uint256",
          "name": "amount",
          "type": "uint256"
        }
      ],
      "name": "withdrawFunds",
      "outputs": [],
      "stateMutability": "nonpayable",
      "type": "function"
    }
  ],
  "bytecode": "0x608060405234801561000f575f80fd5b50335f806101000a81548173ffffffffffffffffffffffffffffffffffffffff021916908373ffffffffffffffffffffffffffffffffffffffff1602179055506107ef8061005c5f395ff3fe608060405260043610610042575f3560e01c8063155dd5ee1461004d578063189ed3561461007557806327e235e31461009d5780638da5cb5b146100d957610049565b3661004957005b5f80fd5b348015610058575f80fd5b50610073600480360381019061006e919061047a565b610103565b005b348015610080575f80fd5b5061009b600480360381019061009691906104ff565b61026b565b005b3480156100a8575f80fd5b506100c360048036038101906100be919061053d565b61040b565b6040516100d09190610577565b60405180910390f35b3480156100e4575f80fd5b506100ed610420565b6040516100fa919061059f565b60405180910390f35b8060015f3373ffffffffffffffffffffffffffffffffffffffff1673ffffffffffffffffffffffffffffffffffffffff1681526020019081526020015f20541015610183576040517f08c379a000000000000000000000000000000000000000000000000000000000815260040161017a90610612565b60405180910390fd5b8060015f3373ffffffffffffffffffffffffffffffffffffffff1673ffffffffffffffffffffffffffffffffffffffff1681526020019081526020015f205f8282546101cf919061065d565b925050819055503373ffffffffffffffffffffffffffffffffffffffff166108fc8290811502906040515f60405180830381858888f19350505050158015610219573d5f803e3d5ffd5b503373ffffffffffffffffffffffffffffffffffffffff167feaff4b37086828766ad3268786972c0cd24259d4c87a80f9d3963a3c3d999b0d826040516102609190610577565b60405180910390a250565b5f8054906101000a900473ffffffffffffffffffffffffffffffffffffffff1673ffffffffffffffffffffffffffffffffffffffff163373ffffffffffffffffffffffffffffffffffffffff16146102f8576040517f08c379a00000000000000000000000000000000000000000000000000000000081526004016102ef90610700565b60405180910390fd5b5f73ffffffffffffffffffffffffffffffffffffffff168273ffffffffffffffffffffffffffffffffffffffff1603610366576040517f08c379a000000000000000000000000000000000000000000000000000000000815260040161035d90610768565b60405180910390fd5b8060015f8473ffffffffffffffffffffffffffffffffffffffff1673ffffffffffffffffffffffffffffffffffffffff1681526020019081526020015f205f8282546103b29190610786565b925050819055508173ffffffffffffffffffffffffffffffffffffffff167f870f86672db2c7b197484fa0218e97fe38eb7c89fd39ed2c4c910734c66182f8826040516103ff9190610577565b60405180910390a25050565b6001602052805f5260405f205f915090505481565b5f8054906101000a900473ffffffffffffffffffffffffffffffffffffffff1681565b5f80fd5b5f819050919050565b61045981610447565b8114610463575f80fd5b50565b5f8135905061047481610450565b92915050565b5f6020828403121561048f5761048e610443565b5b5f61049c84828501610466565b91505092915050565b5f73ffffffffffffffffffffffffffffffffffffffff82169050919050565b5f6104ce826104a5565b9050919050565b6104de816104c4565b81146104e8575f80fd5b50565b5f813590506104f9816104d5565b92915050565b5f806040838503121561051557610514610443565b5b5f610522858286016104eb565b925050602061053385828601610466565b9150509250929050565b5f6020828403121561055257610551610443565b5b5f61055f848285016104eb565b91505092915050565b61057181610447565b82525050565b5f60208201905061058a5f830184610568565b92915050565b610599816104c4565b82525050565b5f6020820190506105b25f830184610590565b92915050565b5f82825260208201905092915050565b7f496e73756666696369656e742062616c616e63650000000000000000000000005f82015250565b5f6105fc6014836105b8565b9150610607826105c8565b602082019050919050565b5f6020820190508181035f830152610629816105f0565b9050919050565b7f4e487b71000000000000000000000000000000000000000000000000000000005f52601160045260245ffd5b5f61066782610447565b915061067283610447565b925082820390508181111561068a57610689610630565b5b92915050565b7f4f6e6c79206f776e65722063616e2063616c6c20746869732066756e6374696f5f8201527f6e00000000000000000000000000000000000000000000000000000000000000602082015250565b5f6106ea6021836105b8565b91506106f582610690565b604082019050919050565b5f6020820190508181035f830152610717816106de565b9050919050565b7f496e76616c696420726563697069656e742061646472657373000000000000005f82015250565b5f6107526019836105b8565b915061075d8261071e565b602082019050919050565b5f6020820190508181035f83015261077f81610746565b9050919050565b5f61079082610447565b915061079b83610447565b92508282019050808211156107b3576107b2610630565b5b9291505056fea264697066735822122077cff52f7393a716f58c44854bf63adf221522582f8d83ffc9d12df63476e76464736f6c63430008150033",
  "immutableReferences": {},
  "source": "// SPDX-License-Identifier: MIT\r\npragma solidity ^0.8.0;\r\n\r\ncontract FundAllocation {\r\n    address public owner;\r\n    mapping(address => uint256) public balances;\r\n\r\n    event FundsAllocated(address indexed recipient, uint256 amount);\r\n    event FundsWithdrawn(address indexed recipient, uint256 amount);\r\n\r\n    modifier onlyOwner() {\r\n        require(msg.sender == owner, \"Only owner can call this function\");\r\n        _;\r\n    }\r\n\r\n    constructor() {\r\n        owner = msg.sender;\r\n    }\r\n\r\n    function allocateFunds(address recipient, uint256 amount) public onlyOwner {\r\n        require(recipient != address(0), \"Invalid recipient address\");\r\n        balances[recipient] += amount;\r\n        emit FundsAllocated(recipient, amount);\r\n    }\r\n\r\n    function withdrawFunds(uint256 amount) public {\r\n        require(balances[msg.sender] >= amount, \"Insufficient balance\");\r\n        balances[msg.sender] -= amount;\r\n        payable(msg.sender).transfer(amount);\r\n        emit FundsWithdrawn(msg.sender, amount);\r\n    }\r\n\r\n    receive() external payable {}\r\n}\r\n",
  "sourcePath": "C:\\Users\\Mahema\\FundAllocation\\contracts\\FundAllocation.sol",
  "compiler": {
    "name": "solc",
    "version": "0.8.21+commit.d9974bed.Emscripten.clang"
  },
  "schemaVersion": "3.4.16",
  "updatedAt": "2024-05-22T16:37:39.648Z",
  "devdoc": {
    "kind": "dev",
    "methods": {},
    "version": 1
  },
  "userdoc": {
    "kind": "user",
    "methods": {},
    "version": 1
  }
}